:020000040800F2
:10000000000002206D180008D5170008DD17000851
:10001000E5170008ED170008F517000800000000BC
:10002000000000000000000000000000FD170008B4
:100030000B18000800000000191800082718000815
:10004000BD180008BD180008BD180008BD1800083C
:10005000BD180008BD180008BD180008BD1800082C
:10006000BD180008BD180008BD180008BD1800081C
:10007000BD180008BD180008BD180008BD1800080C
:10008000BD180008BD180008BD180008BD180008FC
:10009000BD180008BD180008BD180008BD180008EC
:1000A000BD18000835180008BD180008BD18000864
:1000B000BD180008BD180008BD180008BD180008CC
:1000C000BD180008BD180008BD180008BD180008BC
:1000D000BD180008BD180008BD180008BD180008AC
:1000E000BD180008BD180008BD180008BD1800089C
:1000F000BD180008BD180008BD180008BD1800088C
:10010000BD180008BD180008BD180008BD1800087B
:10011000BD180008BD180008BD180008BD1800086B
:10012000BD180008BD180008BD180008BD1800085B
:10013000BD180008BD180008BD180008BD1800084B
:10014000BD180008BD180008BD180008BD1800083B
:10015000BD180008BD180008BD180008BD1800082B
:10016000BD180008BD180008BD180008BD1800081B
:10017000BD180008BD180008BD18000800000000E8
:08018000BD180008BD180008BD
:1001880010B5054C237833B9044B13B10448AFF3C9
:1001980000800123237010BD6000002000000000D3
:1001A8003C46000808B5034B1BB103490348AFF3AD
:1001B800008008BD00000000640000203C460008E4
:1001C80081F0004102E000BF83F0004330B54FEA00
:1001D80041044FEA430594EA050F08BF90EA020F6D
:1001E8001FBF54EA000C55EA020C7FEA645C7FEA00
:1001F800655C00F0E2804FEA5454D4EB5555B8BF23
:100208006D420CDD2C4480EA020281EA030382EA93
:10021800000083EA010180EA020281EA0303362D25
:1002280088BF30BD11F0004F4FEA01314FF4801CF8
:100238004CEA113102D0404261EB410113F0004F0A
:100248004FEA03334CEA133302D0524263EB4303C1
:1002580094EA050F00F0A780A4F10104D5F1200E5F
:100268000DDB02FA0EFC22FA05F2801841F10001BA
:1002780003FA0EF2801843FA05F359410EE0A5F18E
:1002880020050EF1200E012A03FA0EFC28BF4CF0BF
:10029800020C43FA05F3C01851EBE37101F0004575
:1002A80007D54FF0000EDCF1000C7EEB00006EEB82
:1002B8000101B1F5801F1BD3B1F5001F0CD349080C
:1002C8005FEA30004FEA3C0C04F101044FEA445263
:1002D80012F5800F80F09A80BCF1004F08BF5FEAEA
:1002E800500C50F1000041EB045141EA050130BDCA
:1002F8005FEA4C0C404141EB0101013C28BFB1F5DC
:10030800801FE9D291F0000F04BF01460020B1FA26
:1003180081F308BF2033A3F10B03B3F120020CDAF9
:100328000C3208DD02F1140CC2F10C0201FA0CF0D7
:1003380021FA02F10CE002F11402D8BFC2F1200C3C
:1003480001FA02F120FA0CFCDCBF41EA0C019040F2
:10035800E41AA2BF01EB0451294330BD6FEA04043B
:100368001F3C1CDA0C340EDC04F11404C4F1200226
:1003780020FA04F001FA02F340EA030021FA04F338
:1003880045EA030130BDC4F10C04C4F1200220FA8F
:1003980002F001FA04F340EA0300294630BD21FACD
:1003A80004F0294630BD94F0000F83F4801306BF93
:1003B80081F480110134013D4EE77FEA645C18BF87
:1003C8007FEA655C29D094EA050F08BF90EA020F1E
:1003D80005D054EA000C04BF1946104630BD91EA16
:1003E800030F1EBF0021002030BD5FEA545C05D119
:1003F8004000494128BF41F0004130BD14F5800458
:100408003CBF01F5801130BD01F0004545F0FE41CB
:1004180041F470014FF0000030BD7FEA645C1ABF00
:10042800194610467FEA655C1CBF0B46024650EA37
:10043800013406BF52EA033591EA030F41F4002163
:1004480030BD00BF90F0000F04BF0021704730B5E9
:100458004FF4806404F132044FF000054FF00001BE
:1004680050E700BF90F0000F04BF0021704730B57F
:100478004FF4806404F1320410F0004548BF404254
:100488004FF000013EE700BF42004FEAE2014FEAA9
:1004980031014FEA02701FBF12F07F4393F07F4F84
:1004A80081F06051704732F07F4208BF704793F087
:1004B8007F4F04BF41F40021704730B54FF460749A
:1004C80001F0004521F000411CE700BF50EA01029D
:1004D80008BF704730B54FF000050AE050EA010246
:1004E80008BF704730B511F0004502D5404261EBB6
:1004F80041014FF4806404F132045FEA915C3FF4F7
:10050800D8AE4FF003025FEADC0C18BF03325FEA93
:10051800DC0C18BF033202EBDC02C2F1200300FA44
:1005280003FC20FA02F001FA03FE40EA0E0021FA69
:1005380002F11444BDE600BF70B54FF0FF0C4CF457
:10054800E06C1CEA11541DBF1CEA135594EA0C0F09
:1005580095EA0C0F00F0DEF82C4481EA030621EA44
:100568004C5123EA4C5350EA013518BF52EA03357F
:1005780041F4801143F4801338D0A0FB02CE4FF031
:100588000005E1FB02E506F00042E0FB03E54FF061
:100598000006E1FB03569CF0000F18BF4EF0010E59
:1005A800A4F1FF04B6F5007F64F5407404D25FEA55
:1005B8004E0E6D4146EB060642EAC62141EA555108
:1005C8004FEAC52040EA5E504FEACE2EB4F1FD0C4A
:1005D80088BFBCF5E06F1ED8BEF1004F08BF5FEAC8
:1005E800500E50F1000041EB045170BD06F000467A
:1005F80046EA010140EA020081EA0301B4EB5C0427
:10060800C2BFD4EB0C0541EA045170BD41F480111E
:100618004FF0000E013C00F3AB8014F1360FDEBF43
:10062800002001F0004170BDC4F10004203C35DA1F
:100638000C341BDC04F11404C4F1200500FA05F3A2
:1006480020FA04F001FA05F240EA020001F0004243
:1006580021F0004110EBD37021FA04F642EB0601B9
:100668005EEA430E08BF20EAD37070BDC4F10C04E3
:10067800C4F1200500FA04F320FA05F001FA04F2A7
:1006880040EA020001F0004110EBD37041F1000193
:100698005EEA430E08BF20EAD37070BDC4F120059E
:1006A80000FA05F24EEA020E20FA04F301FA05F206
:1006B80043EA020321FA04F001F0004121FA04F2AE
:1006C80020EA020000EBD3705EEA430E08BF20EA7E
:1006D800D37070BD94F0000F0FD101F000464000B8
:1006E80041EB010111F4801F08BF013CF7D041EA3A
:1006F800060195F0000F18BF704703F0004652003E
:1007080043EB030313F4801F08BF013DF7D043EA0E
:100718000603704794EA0C0F0CEA135518BF95EAC4
:100728000C0F0CD050EA410618BF52EA4306D1D14B
:1007380081EA030101F000414FF0000070BD50EA6A
:10074800410606BF1046194652EA430619D094EAF4
:100758000C0F02D150EA013613D195EA0C0F05D1DE
:1007680052EA03361CBF104619460AD181EA030132
:1007780001F0004141F0FE4141F470014FF00000EA
:1007880070BD41F0FE4141F4780170BD70B54FF085
:10079800FF0C4CF4E06C1CEA11541DBF1CEA135505
:1007A80094EA0C0F95EA0C0F00F0A7F8A4EB0504E7
:1007B80081EA030E52EA03354FEA013100F08880DE
:1007C8004FEA03334FF0805545EA131343EA1263A7
:1007D8004FEA022245EA111545EA10654FEA00265C
:1007E8000EF000419D4208BF964244F1FD0404F515
:1007F800407402D25B084FEA3202B61A65EB030571
:100808005B084FEA32024FF480104FF4002CB6EB2D
:10081800020E75EB030E22BFB61A754640EA0C00AD
:100828005B084FEA3202B6EB020E75EB030E22BFED
:10083800B61A754640EA5C005B084FEA3202B6EB2E
:10084800020E75EB030E22BFB61A754640EA9C00ED
:100858005B084FEA3202B6EB020E75EB030E22BFBD
:10086800B61A754640EADC0055EA060E18D04FEA7B
:10087800051545EA16754FEA06164FEAC30343EA1B
:1008880052734FEAC2025FEA1C1CC0D111F4801FE8
:100898000BD141EA00014FF000004FF0004CB6E7E1
:1008A80011F4801F04BF01430020B4F1FD0C88BF80
:1008B800BCF5E06F3FF6AFAEB5EB030C04BFB6EB8B
:1008C800020C5FEA500C50F1000041EB045170BD7E
:1008D8000EF0004E4EEA113114EB5C04C2BFD4EBAB
:1008E8000C0541EA045170BD41F480114FF0000E2F
:1008F800013C90E645EA060E8DE60CEA135594EAAB
:100908000C0F08BF95EA0C0F3FF43BAF94EA0C0FAD
:100918000AD150EA01347FF434AF95EA0C0F7FF422
:1009280025AF104619462CE795EA0C0F06D152EA76
:1009380003353FF4FDAE1046194622E750EA41065A
:1009480018BF52EA43067FF4C5AE50EA41047FF46B
:100958000DAF52EA43057FF4EBAE12E74FF0FF3CD0
:1009680006E000BF4FF0010C02E000BF4FF0010CA1
:100978004DF804CD4FEA410C7FEA6C5C4FEA430C1A
:1009880018BF7FEA6C5C1BD001B050EA410C0CBF69
:1009980052EA430C91EA030F02BF90EA020F0020CB
:1009A800704710F1000F91EA030F58BF994208BF32
:1009B80090422CBFD8176FEAE37040F001007047EF
:1009C8004FEA410C7FEA6C5C02D150EA013C07D146
:1009D8004FEA430C7FEA6C5CD6D152EA033CD3D091
:1009E8005DF8040B704700BF8446104662468C468B
:1009F8001946634600E000BF01B5FFF7B7FF0028BE
:100A080048BF10F1000F01BD4DF808EDFFF7F4FFE6
:100A18000CBF012000205DF808FB00BF4DF808ED71
:100A2800FFF7EAFF34BF012000205DF808FB00BF94
:100A38004DF808EDFFF7E0FF94BF012000205DF8B6
:100A480008FB00BF4DF808EDFFF7CEFF94BF01206B
:100A580000205DF808FB00BF4DF808EDFFF7C4FF64
:100A680034BF012000205DF808FB00BF4FEA410CAD
:100A78007FEA6C5C02D150EA013C0AD14FEA430C90
:100A88007FEA6C5C02D152EA033C02D14FF00000CD
:100A980070474FF0010070474A0011D212F500125A
:100AA80011D20DD56FF47873B3EB62520ED44FEABE
:100AB800C12343F0004343EA505323FA02F070473E
:100AC8004FF00000704750EA013002D14FF0FF307C
:100AD80070474FF00000704753B94AB9002908BF62
:100AE80000281CBF4FF0FF314FF0FF3000F06AB90B
:100AF800ADF1080C6DE904CE00F006F8DDF804E06D
:100B0800DDE9022304B070472DE9F047089D0C4643
:100B1800002B4ED194468C458646B2FA82F262D9B1
:100B28004AB1C2F12003914020FA03F30CFA02FC07
:100B3800194300FA02FE4FEA1C471FFA8CF6B1FB74
:100B4800F7F44FEA1E4307FB141143EA014304FB81
:100B580006F199420AD91CEB030304F1FF3080F037
:100B68001281994240F20F81023C6344591A1FFADC
:100B78008EF3B1FBF7F007FB101143EA014300FBCA
:100B880006F69E420AD91CEB030300F1FF3180F000
:100B9800FC809E4240F2F980634402389B1B40EA85
:100BA800044000211DB1D3400022C5E90032BDE850
:100BB800F0878B4205D90DB1C5E90001002108462F
:100BC800F5E7B3FA83F1002946D1A34202D3904254
:100BD800C0F0F080861A64EB03030120002DE6D0F4
:100BE800C5E90063E3E7002A40F09080A1EB0C041C
:100BF8004FEA1C481FFA8CF70121B4FBF8F64FEABC
:100C08001E4308FB164443EA044307FB06F09842D8
:100C180008D91CEB030306F1FF3402D2984200F214
:100C2800CD8026461C1A1FFA8EF3B4FBF8F008FB99
:100C3800104443EA044300FB07F79F4208D91CEB22
:100C4800030300F1FF3402D29F4200F2B080204635
:100C5800DB1B40EA0640A5E7C1F120068B4022FADB
:100C680006F71F4320FA06FC04FA01F343EA0C03D3
:100C7800F44000FA01F8380C4FEA1349B4FBF0FECF
:100C88001FFA87FC00FB1E4449EA04440EFB0CF9DA
:100C9800A14502FA01F20AD93C190EF1FF3A80F097
:100CA8008480A14540F28180AEF1020E3C44A4EB61
:100CB80009041FFA83F9B4FBF0F300FB134449EA73
:100CC800044403FB0CFCA44507D93C1903F1FF308D
:100CD80067D2A44565D9023B3C4443EA0E40A0FBD9
:100CE8000293A4EB0C049C42CE469C4651D34ED0B2
:100CF80055B1B8EB0E0364EB0C0404FA06F6CB40CE
:100D08001E43CC40C5E90064002150E7C2F120032E
:100D180020FA03F10CFA02FC24FA03F394400C4382
:100D28004FEA1C4800FA02FE1FFA8CF7B3FBF8F0F2
:100D380008FB1031230C43EA014300FB07F19942F9
:100D480008D91CEB030300F1FF362CD299422AD9AB
:100D5800023863445B1AA4B2B3FBF8F108FB113301
:100D680044EA034401FB07F3A34208D91CEB04043B
:100D780001F1FF3613D2A34211D902396444E41AAF
:100D880041EA004139E70446F0E6084606E7C84567
:100D9800AED2B9EB020E63EB070C0138A8E7314677
:100DA800EDE7034699E73046D4E7D6467FE7634444
:100DB80002384DE70646234608460FE7023E6344DD
:100DC80030E700BF704700BF80B586B002AF03466A
:100DD800FB71FB7923F00F03FB73FB791B01BB73DA
:100DE800FB7B43F00C03DBB23B72FB7B43F0080355
:100DF800DBB27B72BB7B43F00C03DBB2BB72BB7B09
:100E080043F00803DBB2FB7207F108026423009386
:100E180004234E21034801F0F1FD00BF1037BD4601
:100E280080BD00BFD400002080B586B002AF034665
:100E3800FB71FB7923F00F03FB73FB791B01BB7379
:100E4800FB7B43F00D03DBB23B72FB7B43F00903F2
:100E5800DBB27B72BB7B43F00D03DBB2BB72BB7BA7
:100E680043F00903DBB2FB7207F108026423009325
:100E780004234E21034801F0C1FD00BF1037BD46D1
:100E880080BD00BFD400002080B582B000AF8020B4
:100E9800FFF79AFF00237B6005E02020FFF7C4FFDF
:100EA8007B6801337B607B68452BF6DD00BF00BFA4
:100EB8000837BD4680BD80B582B000AF7860396024
:100EC8007B68002B03D07B68012B05D009E03B68C9
:100ED80043F080033B6004E03B6843F0C0033B60A1
:100EE80000BF3B68DBB21846FFF76EFF00BF08374C
:100EF800BD4680BD80B500AF322000F04FFD3020E8
:100F0800FFF762FF052000F049FD3020FFF75CFF86
:100F1800012000F043FD3020FFF756FF0A2000F0C3
:100F28003DFD2020FFF750FF0A2000F037FD282064
:100F3800FFF74AFF012000F031FD0820FFF744FFCA
:100F4800012000F02BFD0120FFF73EFF012000F0FB
:100F580025FD012000F022FD0620FFF735FF0120C6
:100F680000F01CFD0C20FFF72FFF00BF80BD80B5EF
:100F780082B000AF786006E07B685A1C7A601B7804
:100F88001846FFF751FF7B681B78002BF4D100BF90
:100F980000BF0837BD4680BD80B584B000AF78601B
:100FA800354A7B6892FBF3F3A3F51C53103B1846B4
:100FB800FFF758FA02460B4643EC102B03F03CF9B6
:100FC80087ED020B24A3D3E90023D7E90201FFF739
:100FD800B3FA02460B4610461946D7E90223FFF733
:100FE800ABFA02460B46104619461DA3D3E9002367
:100FF800FFF7ECF802460B4610461946D7E90223DC
:10100800FFF79AFA02460B461046194616A3D3E98B
:101018000023FFF7DBF802460B464FF000001749A4
:10102800FFF7B4FB02460B46C7E9022310A3D3E936
:101038000023D7E90201FFF7C7F802460B46C7E9C4
:101048000223D7E9022343EC172BB0EE470AF0EE50
:10105800670A1037BD4680BD190D1714EB88773E17
:10106800C2C3B46FEEAF2E3FAA9A3786B451533F2E
:101078006666666666127140F0D870020000F03F3E
:10108800B0B500AF00F018FC00F032F900F06CFACF
:1010980000F098F900F0E8F900F014FAFFF72AFFD9
:1010A800FFF7F2FE884800F0E1FC4FF47A718648B9
:1010B80000F0E1FD844800F069FE03469AB2834BD4
:1010C8001A80814800F0A4FD804B1B881846FFF762
:1010D80063FFB0EE407AF0EE607A7D4B83ED007BE3
:1010E800642000F05BFC7A4BD3E900014FF000026A
:1010F800784BFFF74BFB02460B4610461946FFF7A5
:10110800CBFC0346DAB2744B1A70714BD3E9004535
:10111800714B1B781A4613469B0013445B00184614
:10112800FFF7A0F902460B4620462946FFF74CF880
:1011380002460B4610461946FFF7AEFC0346DAB2E4
:10114800664B1A70624BD3E90045634B1B781A460D
:1011580013469B0013445B001846FFF783F90246C9
:101168000B4620462946FFF72FF802460B46144641
:101178001D465A4B1B781846FFF774F902460B4672
:1011880020462946FFF720F802460B461046194626
:101198004FF000024F4BFFF7CFF902460B461046BF
:1011A8001946FFF779FC0346DAB24D4B1A70484BE3
:1011B800D3E90045484B1B781A4613469B00134455
:1011C8005B001846FFF74EF902460B4620462946B3
:1011D800FEF7FAFF02460B4614461D463F4B1B78A6
:1011E8001846FFF73FF902460B4620462946FEF708
:1011F800EBFF02460B46104619464FF00002394BEA
:10120800FFF79AF902460B4614461D46344B1B78E5
:101218001A4613469B0013445B001846FFF722F951
:1012280002460B4620462946FEF7CEFF02460B46ED
:1012380010461946FFF730FC0346DAB22A4B1A70FB
:1012480000210020FFF737FE234B1B783033DBB239
:101258001846FFF7E9FD642000F0A0FB01210020FB
:10126800FFF729FE1D4B1B783033DBB21846FFF71A
:10127800DBFD642000F092FB02210020FFF71BFE3B
:101288001A48FFF774FE642000F088FB0321002051
:10129800FFF711FE124B1B783033DBB21846FFF70D
:1012A800C3FD642000F07AFB04210020FFF703FE51
:1012B8000D4B1B783033DBB21846FFF7B5FDC8205D
:1012C80000F06CFB00BFEDE68C0000207C000020E5
:1012D80080000020000024408800002089000020B1
:1012E8008A000020000059408B0000205446000866
:1012F80080B594B000AF07F12003302200211846D2
:1013080002F068FF07F10C0300221A605A609A6025
:10131800DA601A610023BB60284B1B6C274A43F034
:1013280080531364254B1B6C03F08053BB60BB6870
:1013380000237B60224B1B68214A43F480431360DF
:101348001F4B1B6803F480437B607B6801233B626F
:101358004FF480337B620223BB634FF48003FB634B
:1013680008233B64A8237B640223BB640423FB6437
:1013780007F12003184601F09BFE0346002B01D01D
:1013880000F042F90F23FB6002233B6100237B61DD
:101398004FF4A053BB614FF48053FB6107F10C037A
:1013A8000221184602F0FCF80346002B01D000F099
:1013B8002BF900BF5037BD4680BD00BF0038024042
:1013C8000070004080B584B000AF3B4600221A6030
:1013D8005A609A60DA60214B214A1A601F4B00223A
:1013E8005A601E4B00229A601C4B00221A611B4B4C
:1013F80001221A76194B002283F82020174B00226D
:10140800DA62164B174A9A62144B0022DA60134BC1
:101418000122DA61114B002283F830200F4B0122A0
:101428005A610E4800F0DEFA0346002B01D000F0A6
:10143800EBF801233B6001237B600323BB603B4641
:101448001946064800F0B0FC0346002B01D000F016
:10145800DBF800BF1037BD4680BD00BF8C00002000
:10146800002001400100000F80B500AF124B134A65
:101478001A60114B124A5A600F4B00229A600E4BA9
:101488000022DA600C4B4FF480421A610A4B0022AA
:101498005A61094B00229A61074B0022DA61064B18
:1014A80000221A62044801F065F90346002B01D0B6
:1014B80000F0AAF800BF80BDD4000020005400400E
:1014C800A086010080B586B000AF07F108030022AE
:1014D8001A605A609A60DA603B4600221A605A60C5
:1014E8001F4B204A1A601E4B41F63F725A601C4B34
:1014F80000229A601A4B40F2E732DA60184B002259
:101508001A61174B00225A61154B00229A61144840
:1015180002F052FA0346002B01D000F075F84FF4A0
:101528008053BB6007F1080319460D4802F083FB9E
:101538000346002B01D000F067F800233B6000232E
:101548007B603B461946064802F0B4FD0346002B73
:1015580001D000F059F800BF1837BD4680BD00BF64
:10156800280100200000014080B588B000AF07F1D5
:101578000C0300221A605A609A60DA601A6100232C
:10158800BB601F4B1B6B1E4A43F0800313631C4B4D
:101598001B6B03F08003BB60BB6800237B60184BA8
:1015A8001B6B174A43F001031363154B1B6B03F0C6
:1015B80001037B607B6800233B60114B1B6B104A67
:1015C80043F0020313630E4B1B6B03F002033B60F3
:1015D8003B68002218210B4801F0B2F81823FB6081
:1015E80001233B6100237B610023BB6107F10C03EE
:1015F8001946044800F008FF00BF2037BD4680BDEB
:10160800003802400000024080B400AF72B600BF4C
:1016180000BFFDE780B483B000AF00237B60104BB0
:101628005B6C0F4A43F4804353640D4B5B6C03F4CB
:1016380080437B607B6800233B60094B1B6C084A36
:1016480043F080531364064B1B6C03F080533B60DC
:101658003B6800BF0C37BD465DF8047B704700BF90
:101668000038024080B58AB000AF786007F11403F3
:1016780000221A605A609A60DA601A617B681B68F7
:10168800174A934227D100233B61164B5B6C154ADE
:1016980043F480735364134B5B6C03F480733B61B6
:1016A8003B690023FB600F4B1B6B0E4A43F00103A1
:1016B80013630C4B1B6B03F00103FB60FB680223F5
:1016C8007B610323BB610023FB6107F11403194607
:1016D800054800F099FE00BF2837BD4680BD00BF11
:1016E80000200140003802400000024080B58AB066
:1016F80000AF786007F1140300221A605A609A60FC
:10170800DA601A617B681B68194A93422BD100235F
:101718003B61184B1B6B174A43F002031363154BCD
:101728001B6B03F002033B613B69C0237B611223FF
:10173800BB610023FB6103233B6204237B6207F147
:10174800140319460C4800F05FFE0023FB60094BA8
:101758001B6C084A43F400131364064B1B6C03F418
:101768000013FB60FB6800BF2837BD4680BD00BF83
:1017780000540040003802400004024080B584B0A4
:1017880000AF78607B681B680E4A934215D100232E
:10179800FB600D4B5B6C0C4A43F0010353640A4B2E
:1017A8005B6C03F00103FB60FB6800220021192039
:1017B80000F0F3FD192000F00CFE00BF1037BD4605
:1017C80080BD00BF000001400038024080B400AF77
:1017D80000BFFDE780B400AF00BFFDE780B400AFF5
:1017E80000BFFDE780B400AF00BFFDE780B400AFE5
:1017F80000BFFDE780B400AF00BFBD465DF8047BC5
:10180800704780B400AF00BFBD465DF8047B7047E9
:1018180080B400AF00BFBD465DF8047B704780B55B
:1018280000AF00F09BF800BF80BD000080B500AF9E
:10183800024802F010F900BF80BD00BF2801002057
:1018480080B400AF064BD3F88830054A43F47003E0
:10185800C2F8883000BFBD465DF8047B704700BF02
:1018680000ED00E0DFF834D0FFF7EAFF0C480D493F
:101878000D4A002302E0D458C4500433C4188C42E3
:10188800F9D30A4A0A4C002301E013600432A24249
:10189800FBD302F0ADFCFFF7F3FB7047000002201A
:1018A800000000205C000020844600086000002042
:1018B800AC020020FEE7000080B500AF0E4B1B68AD
:1018C8000D4A43F4007313600B4B1B680A4A43F438
:1018D80080631360084B1B68074A43F480731360E6
:1018E800032000F04FFD0F2000F008F8FFF792FEEC
:1018F8000023184680BD00BF003C024080B582B07E
:1019080000AF7860124B1A68124B1B7819464FF4D7
:101918007A73B3FBF1F3B2FBF3F3184600F067FDFB
:101928000346002B01D001230EE07B680F2B0AD859
:10193800002279684FF0FF3000F02FFD064A7B68DF
:101948001360002300E0012318460837BD4680BD18
:1019580000000020080000200400002080B400AF30
:10196800064B1B781A46064B1B681344044A13603F
:1019780000BFBD465DF8047B704700BF080000202B
:101988007001002080B400AF034B1B681846BD46A9
:101998005DF8047B704700BF7001002080B584B0FB
:1019A80000AF7860FFF7EEFFB8607B68FB60FB680C
:1019B800B3F1FF3F05D00A4B1B781A46FB68134466
:1019C800FB6000BFFFF7DEFF0246BB68D31AFA6868
:1019D8009A42F7D800BF00BF1037BD4680BD00BF90
:1019E8000800002080B584B000AF78600023FB7346
:1019F8007B68002B01D1012333E07B681B6C002B33
:101A080009D17868FFF72EFE7B6800225A647B684C
:101A1800002283F83C207B681B6C03F01003002B2A
:101A280018D17B681B6C23F4885323F0020343F01E
:101A380002027B681A64786800F0D8FA7B68002292
:101A48005A647B681B6C23F0030343F001027B6834
:101A58001A6401E00123FB737B68002283F83C20B1
:101A6800FB7B18461037BD4680BD000080B485B0AA
:101A780000AF78600023BB607B6893F83C30012B93
:101A880001D10223B2E07B68012283F83C207B6805
:101A98001B689B6803F00103012B18D07B681B6847
:101AA8009A687B681B6842F001029A60524B1B6877
:101AB800524AA2FB03239A0C13465B001344BB60F3
:101AC80002E0BB68013BBB60BB68002BF9D17B68B7
:101AD8001B689B6803F00103012B7AD17B681B6CA0
:101AE80023F4E06323F0010343F480727B681A64F3
:101AF8007B681B685B6803F48063002B07D07B68F6
:101B08001B6C23F4405343F480527B681A647B684F
:101B18001B6C03F48053B3F5805F06D17B685B6C64
:101B280023F006027B685A6402E07B6800225A644C
:101B38007B68002283F83C20314BFB607B681B6884
:101B48006FF022021A60FB685B6803F01F03002B2A
:101B58002AD17B681B682B4A934215D07B681B6887
:101B6800294A934205D1264B5B6803F01F03002BDB
:101B78000AD07B681B68254A934236D1204B5B68A4
:101B880003F01003002B30D17B681B689B6803F0BF
:101B98004053002B29D17B681B689A687B681B68B7
:101BA80042F080429A6020E07B681B68154A9342A5
:101BB8001BD17B681B689B6803F04053002B14D132
:101BC8007B681B689A687B681B6842F080429A6051
:101BD8000BE07B681B6C43F010027B681A647B681F
:101BE8005B6C43F001027B685A6400231846143783
:101BF800BD465DF8047B70470000002083DE1B4370
:101C08000023014000200140002101400022014042
:101C180080B483B000AF78607B6893F83C30012BC8
:101C280001D1022321E07B68012283F83C207B68F4
:101C38001B689A687B681B6822F001029A607B68BF
:101C48001B689B6803F00103002B09D17B681B6CA0
:101C580023F4885323F0010343F001027B681A64DC
:101C68007B68002283F83C20002318460C37BD46C9
:101C78005DF8047B704780B584B000AF7860396048
:101C88000023FB607B681B689B6803F48063B3F5E3
:101C9800806F13D17B681B689B6803F48073B3F56E
:101CA800807F0BD17B681B6C43F020027B681A6431
:101CB8007B68002283F83C20012363E0FFF762FE83
:101CC800F86021E03B68B3F1FF3F1DD03B68002B73
:101CD80007D0FFF757FE0246FB68D31A3A689A42C4
:101CE80012D27B681B681B6803F00203022B0BD01F
:101CF8007B681B6C43F004027B681A647B680022D3
:101D080083F83C2003233DE07B681B681B6803F0D5
:101D18000203022BD6D17B681B686FF012021A608F
:101D28007B681B6C43F400727B681A647B681B68D1
:101D38009B6803F04053002B23D17B681B7E002B4C
:101D48001FD17B681B68DB6A03F47003002B06D085
:101D58007B681B689B6803F48063002B11D17B6848
:101D68001B6C23F480727B681A647B681B6C03F419
:101D78008053002B05D17B681B6C43F001027B6804
:101D88001A64002318461037BD4680BD80B483B05E
:101D980000AF78607B681B68DB6C18460C37BD4663
:101DA8005DF8047B7047000080B485B000AF7860B0
:101DB80039600023BB607B6893F83C30012B01D16C
:101DC800022305E17B68012283F83C203B681B68FD
:101DD800092B25D97B681B68D9683B681B689BB2AF
:101DE8001A4613465B0013441E3B072202FA03F30C
:101DF800DA437B681B680A40DA607B681B68D9682D
:101E08003B689A683B681B689BB2184603465B00B0
:101E180003441E3B9A407B681B680A43DA6022E051
:101E28007B681B6819693B681B689BB21A46134696
:101E38005B001344072202FA03F3DA437B681B684A
:101E48000A401A617B681B6819693B689A683B6895
:101E58001B689BB2184603465B0003449A407B68A4
:101E68001B680A431A613B685B68062B24D87B68A9
:101E78001B68596B3B685A6813469B001344053B23
:101E88001F2202FA03F3DA437B681B680A405A638D
:101E98007B681B68596B3B681B689BB218463B689C
:101EA8005A6813469B001344053B00FA03F27B680B
:101EB8001B680A435A634CE03B685B680C2B24D8C8
:101EC8007B681B68196B3B685A6813469B00134470
:101ED800233B1F2202FA03F3DA437B681B680A409C
:101EE8001A637B681B68196B3B681B689BB21846B2
:101EF8003B685A6813469B001344233B00FA03F2DD
:101F08007B681B680A431A6323E07B681B68D96AED
:101F18003B685A6813469B001344413B1F2202FA50
:101F280003F3DA437B681B680A40DA627B681B6844
:101F3800D96A3B681B689BB218463B685A681346C7
:101F48009B001344413B00FA03F27B681B680A4379
:101F5800DA62224BFB607B681B68214A934209D1F5
:101F68003B681B68122B05D1FB685B6843F4800251
:101F7800FB685A607B681B68194A934223D13B6807
:101F88001B68102B03D03B681B68112B1BD1FB6807
:101F98005B6843F40002FB685A603B681B68102BBF
:101FA80011D1104B1B68104AA2FB03239A0C13464D
:101FB8009B0013445B00BB6002E0BB68013BBB6055
:101FC800BB68002BF9D17B68002283F83C200023F2
:101FD80018461437BD465DF8047B7047002301405E
:101FE800002001400000002083DE1B4380B485B040
:101FF80000AF7860794BFB60FB685B6823F4403284
:10200800FB685A60FB685A687B685B681A43FB6820
:102018005A607B681B685A687B681B6822F4807268
:102028005A607B681B6859687B681B691A027B6861
:102038001B680A435A607B681B685A687B681B6880
:1020480022F040725A607B681B6859687B689A68FE
:102058007B681B680A435A607B681B689A687B68C0
:102068001B6822F400629A607B681B6899687B6829
:10207800DA687B681B680A439A607B689B6A584ADF
:10208800934222D07B681B689A687B681B6822F0A1
:1020980070629A607B681B6899687B689A6A7B683B
:1020A8001B680A439A607B681B689A687B681B6890
:1020B80022F040529A607B681B6899687B68DA6AEC
:1020C8007B681B680A439A600FE07B681B689A6804
:1020D8007B681B6822F070629A607B681B689A684C
:1020E8007B681B6822F040529A607B681B689A687C
:1020F8007B681B6822F002029A607B681B689968FB
:102108007B681B7E5A007B681B680A439A607B6861
:1021180093F82030002B1BD07B681B685A687B68BB
:102128001B6842F400625A607B681B685A687B68C7
:102138001B6822F460425A607B681B6859687B6898
:102148005B6A013B5A037B681B680A435A6007E0D5
:102158007B681B685A687B681B6822F400625A60B7
:102168007B681B68DA6A7B681B6822F47002DA6293
:102178007B681B68D96A7B68DB69013B1A057B6849
:102188001B680A43DA627B681B689A687B681B686D
:1021980022F400729A607B681B6899687B6893F8E0
:1021A80030305A027B681B680A439A607B681B6858
:1021B8009A687B681B6822F480629A607B681B6857
:1021C80099687B685B699A027B681B680A439A6016
:1021D80000BF1437BD465DF8047B704700230140FB
:1021E8000100000F80B485B000AF78607B6803F011
:1021F8000703FB600C4BDB68BB60BA684FF6FF0354
:102208001340BB60FB681A02BB68134343F0BF630B
:1022180043F40033BB60044ABB68D36000BF143783
:10222800BD465DF8047B704700ED00E080B400AF68
:10223800044BDB681B0A03F007031846BD465DF82C
:10224800047B704700ED00E080B483B000AF034624
:10225800FB7197F90730002B0BDBFB7903F01F02AA
:10226800074997F907305B09012000FA02F241F8A3
:10227800232000BF0C37BD465DF8047B704700BFC4
:1022880000E100E080B483B000AF03463960FB7121
:1022980097F90730002B0ADB3B68DAB20C4997F94B
:1022A80007301201D2B20B4483F800230AE03B68DE
:1022B800DAB20849FB7903F00F03043B1201D2B2EA
:1022C8000B441A7600BF0C37BD465DF8047B704797
:1022D80000E100E000ED00E080B489B000AFF860F4
:1022E800B9607A60FB6803F00703FB61FB69C3F11F
:1022F8000703042B28BF0423BB61FB690433062BA7
:1023080002D9FB69033B00E000237B614FF0FF32F9
:10231800BB6902FA03F3DA43BB681A407B699A4047
:102328004FF0FF317B6901FA03F3D9437B680B4017
:10233800134318462437BD465DF8047B70470000F8
:1023480080B582B000AF78607B68013BB3F1807FD5
:1023580001D301230FE00A4A7B68013B53600F2138
:102368004FF0FF30FFF78EFF054B00229A60044BB9
:1023780007221A60002318460837BD4680BD00BFF3
:1023880010E000E080B582B000AF78607868FFF7B1
:1023980029FF00BF0837BD4680BD80B586B000AFB5
:1023A8000346B9607A60FB7300237B61FFF73EFF49
:1023B80078617A68B9687869FFF78EFF024697F9FD
:1023C8000F3011461846FFF75DFF00BF1837BD46AE
:1023D80080BD80B582B000AF0346FB7197F9073026
:1023E8001846FFF731FF00BF0837BD4680BD80B5EE
:1023F80082B000AF78607868FFF7A2FF03461846FE
:102408000837BD4680BD000080B489B000AF786051
:10241800396000237B6100233B610023BB610023FB
:10242800FB616BE10122FB6902FA03F37B613B6804
:102438001B687A6913403B613A697B699A4240F0AC
:102448005A813B685B6803F00303012B05D03B68A6
:102458005B6803F00303022B30D17B689B68BB6188
:10246800FB695B00032202FA03F3DB43BA691340FA
:10247800BB613B68DA68FB695B0002FA03F3BA697F
:102488001343BB617B68BA699A607B685B68BB6110
:102498000122FB6902FA03F3DB43BA691340BB610B
:1024A8003B685B681B0903F00102FB6902FA03F34E
:1024B800BA691343BB617B68BA695A603B685B6859
:1024C80003F00303032B17D07B68DB68BB61FB6950
:1024D8005B00032202FA03F3DB43BA691340BB61D2
:1024E8003B689A68FB695B0002FA03F3BA69134315
:1024F800BB617B68BA69DA603B685B6803F0030319
:10250800022B23D1FB69DA087B68083253F82230A2
:10251800BB61FB6903F007039B000F2202FA03F378
:10252800DB43BA691340BB613B681A69FB6903F076
:1025380007039B0002FA03F3BA691343BB61FB6903
:10254800DA087B680832B96943F822107B681B688F
:10255800BB61FB695B00032202FA03F3DB43BA6940
:102568001340BB613B685B6803F00302FB695B00D7
:1025780002FA03F3BA691343BB617B68BA691A604C
:102588003B685B6803F44033002B00F0B480002301
:10259800FB60604B5B6C5F4A43F4804353645D4B64
:1025A8005B6C03F48043FB60FB685B4AFB699B0838
:1025B800023352F82330BB61FB6903F003039B002D
:1025C8000F2202FA03F3DB43BA691340BB617B684D
:1025D800524A93422BD07B68514A934225D07B685C
:1025E800504A93421FD07B684F4A934219D07B6868
:1025F8004E4A934213D07B684D4A93420DD07B6874
:102608004C4A934207D07B684B4A934201D1072337
:102618000EE008230CE006230AE0052308E0042363
:1026280006E0032304E0022302E0012300E0002384
:10263800FA6902F0030292009340BA691343BB613E
:102648003549FB699B080233BA6941F823203B4BA3
:102658009B68BB613B69DB43BA691340BB613B685C
:102668005B6803F48013002B03D0BA693B691343FA
:10267800BB61324ABB699360304BDB68BB613B6925
:10268800DB43BA691340BB613B685B6803F4001322
:10269800002B03D0BA693B691343BB61274ABB6966
:1026A800D360264B5B68BB613B69DB43BA69134067
:1026B800BB613B685B6803F40033002B03D0BA6945
:1026C8003B691343BB611D4ABB6953601B4B1B68C5
:1026D800BB613B69DB43BA691340BB613B685B681C
:1026E80003F48033002B03D0BA693B691343BB6101
:1026F800124ABB691360FB690133FB61FB690F2B4D
:102708007FF690AE00BF00BF2437BD465DF8047B5E
:10271800704700BF00380240003801400000024006
:102728000004024000080240000C02400010024071
:102738000014024000180240001C0240003C014006
:1027480080B483B000AF78600B467B8013467B7003
:102758007B78002B03D07A887B689A6103E07B88BA
:102768001A047B689A6100BF0C37BD465DF8047B8C
:102778007047000080B584B000AF78607B68002B9C
:1027880001D101232BE17B6893F83D30DBB2002BAC
:1027980006D17B68002283F83C207868FEF7A6FF04
:1027A8007B68242283F83D207B681B681A687B6855
:1027B8001B6822F001021A607B681B681A687B6834
:1027C8001B6842F400421A607B681B681A687B68C1
:1027D8001B6822F400421A6001F0DAF8F8607B689E
:1027E8005B68814A934207D8FB68804A934294BF4A
:1027F80001230023DBB206E0FB687D4A934294BFC5
:1028080001230023DBB2002B01D00123E7E0FB68A2
:10281800784AA2FB03239B0CBB607B681B685B6840
:1028280023F03F017B681B68BA680A435A607B68DB
:102838001B681B6A23F03F017B685B686A4A934206
:1028480002D8BB68013309E0BB684FF4967202FBFB
:1028580003F3694AA2FB03239B0901337A681268D0
:102868000B4313627B681B68DB6923F44F4222F039
:10287800FF027B685B685C498B4219D8FB68591E6C
:102888007B685B685B00B1FBF3F3591C40F6FC7393
:102898000B40002B0AD0FB68591E7B685B685B0005
:1028A800B1FBF3F30133C3F30B0351E004234FE00F
:1028B8007B689B68002B11D1FB68581E7B685968A0
:1028C8000B465B000B44B0FBF3F30133C3F30B037C
:1028D800002B0CBF01230023DBB212E0FB68581E5B
:1028E8007B6859680B469B000B4499000B44B0FB6E
:1028F800F3F30133C3F30B03002B0CBF01230023B5
:10290800DBB2002B01D0012322E07B689B68002BFF
:102918000ED1FB68581E7B6859680B465B000B4458
:10292800B0FBF3F30133C3F30B0343F400430FE0AD
:10293800FB68581E7B6859680B469B000B4499003E
:102948000B44B0FBF3F30133C3F30B0343F44043ED
:10295800796809681343CB617B681B681B6823F09F
:10296800C0017B68DA697B681B6A1A437B681B684D
:102978000A431A607B681B689B6823F4034323F0AF
:10298800FF037A6811697A68D26811437A68126815
:102998000B4393607B681B68DB6823F0FF017B684F
:1029A8005A697B689B691A437B681B680A43DA602B
:1029B8007B681B681A687B681B6842F001021A6012
:1029C8007B6800221A647B68202283F83D207B689C
:1029D80000221A637B68002283F83E2000231846F1
:1029E8001037BD4680BD00BFA08601007F841E0051
:1029F800FF083D0083DE1B43D34D621080B588B0CD
:102A080002AFF8607A601A460B467B8113463B8119
:102A1800FEF7B8FF7861FB6893F83D30DBB2202BF6
:102A280040F0E0807B690093192301227049F8681F
:102A380000F064F90346002B01D00223D3E0FB68C1
:102A480093F83C30012B01D10223CCE0FB68012232
:102A580083F83C20FB681B681B6803F00103012B0B
:102A680007D0FB681B681A68FB681B6842F0010204
:102A78001A60FB681B681A68FB681B6822F400620E
:102A88001A60FB68212283F83D20FB68102283F836
:102A98003E20FB6800221A64FB687A685A62FB6869
:102AA8003A895A85FB685B8D9AB2FB681A85FB6880
:102AB800504ADA6279897B693A6AF86800F09CF8CA
:102AC8000346002B01D001238DE000233B61FB6806
:102AD8001B685B693B61FB681B689B693B613B69E1
:102AE80066E07A69396AF86800F022FA0346002B32
:102AF8000DD0FB681B6C042B07D1FB681B681A6898
:102B0800FB681B6842F400721A6001236BE0FB68E3
:102B18005B6A1A78FB681B681A61FB685B6A5A1C57
:102B2800FB685A62FB685B8D9BB2013B9AB2FB68FB
:102B38005A85FB681B8D013B9AB2FB681A85FB68B6
:102B48001B685B6903F00403042B1BD1FB681B8D16
:102B5800002B17D0FB685B6A1A78FB681B681A6140
:102B6800FB685B6A5A1CFB685A62FB685B8D9BB208
:102B7800013B9AB2FB685A85FB681B8D013B9AB2F0
:102B8800FB681A857A69396AF86800F019FA034609
:102B9800002B0DD0FB681B6C042B07D1FB681B684E
:102BA8001A68FB681B6842F400721A6001231AE075
:102BB800FB681B8D002B94D1FB681B681A68FB68A7
:102BC8001B6842F400721A60FB68202283F83D20DB
:102BD800FB68002283F83E20FB68002283F83C2033
:102BE800002300E0022318461837BD4680BD00BF09
:102BF800020010000000FFFF80B588B002AFF86047
:102C08007A603B600B467B81FB68DB6A7B617B6992
:102C1800082B06D07B69012B03D07B6913F5803F15
:102C280008D1FB681B681A68FB681B6842F480724D
:102C38001A600BE0FB681B6B122B07D1FB681B6843
:102C48001A68FB681B6842F480721A603B6800933C
:102C58007B6800224FF00111F86800F04FF8034636
:102C6800002B0DD0FB681B681B6803F48073B3F559
:102C7800807F03D1FB684FF400721A64032335E0A8
:102C8800FB681B69B3F5804F08D17B89DBB21A4614
:102C9800FB681B6802F0FE021A611BE07B89DB11EE
:102CA800DBB203F00603DBB263F00F03DAB2FB68B2
:102CB8001B681A613B687A680E49F86800F098F852
:102CC8000346002B01D0012310E07B89DAB2FB68B0
:102CD8001B681A613B687A680749F86800F088F849
:102CE8000346002B01D0012300E0002318461837C3
:102CF800BD4680BD080001000200010080B584B017
:102D080000AFF860B9603B601346FB7148E03B6870
:102D1800B3F1FF3F44D0FEF735FE0246BB69D31A34
:102D28003A689A4202D33B68002B39D1BB681B0C26
:102D3800DBB2012B0DD1FB681B685B69DA43BB680A
:102D480013409BB2002B0CBF01230023DBB21A46B1
:102D58000CE0FB681B689B69DA43BB6813409BB2B5
:102D6800002B0CBF01230023DBB21A46FB799A42E1
:102D780016D1FB6800221A63FB68202283F83D20E5
:102D8800FB68002283F83E20FB681B6C43F020029E
:102D9800FB681A64FB68002283F83C20012323E0C7
:102DA800BB681B0CDBB2012B0DD1FB681B685B6990
:102DB800DA43BB6813409BB2002B0CBF01230023EE
:102DC800DBB21A460CE0FB681B689B69DA43BB68F8
:102DD80013409BB2002B0CBF01230023DBB21A4621
:102DE800FB799A4293D0002318461037BD4680BD20
:102DF80080B584B000AFF860B9607A603B6071E07C
:102E0800FB681B685B6903F48063B3F5806F23D1AB
:102E1800FB681B681A68FB681B6842F400721A603A
:102E2800FB681B686FF480625A61FB6800221A63B2
:102E3800FB68202283F83D20FB68002283F83E20AF
:102E4800FB681B6C43F00402FB681A64FB680022F1
:102E580083F83C20012367E07B68B3F1FF3F41D052
:102E6800FEF790FD02463B68D31A7A689A4202D36D
:102E78007B68002B36D1BB681B0CDBB2012B0CD155
:102E8800FB681B685B69DA43BB6813409BB2002B85
:102E980014BF01230023DBB20BE0FB681B689B69AE
:102EA800DA43BB6813409BB2002B14BF01230023F5
:102EB800DBB2002B16D0FB6800221A63FB682022C5
:102EC80083F83D20FB68002283F83E20FB681B6CDA
:102ED80043F02002FB681A64FB68002283F83C2058
:102EE800012321E0BB681B0CDBB2012B0CD1FB6872
:102EF8001B685B69DA43BB6813409BB2002B14BFA5
:102F080001230023DBB20BE0FB681B689B69DA43F3
:102F1800BB6813409BB2002B14BF01230023DBB214
:102F2800002B7FF46DAF002318461037BD4680BDD7
:102F380080B584B000AFF860B9607A6034E0F868B2
:102F480000F086F80346002B01D0012334E0BB686B
:102F5800B3F1FF3F28D0FEF715FD02467B68D31A70
:102F6800BA689A4202D3BB68002B1DD1FB681B6864
:102F78005B6903F08003802B16D0FB6800221A637C
:102F8800FB68202283F83D20FB68002283F83E205E
:102F9800FB681B6C43F02002FB681A64FB68002284
:102FA80083F83C20012307E0FB681B685B6903F09A
:102FB8008003802BC3D1002318461037BD4680BD3F
:102FC80080B584B000AFF860B9607A6034E0F86822
:102FD80000F03EF80346002B01D0012334E0BB6823
:102FE800B3F1FF3F28D0FEF7CDFC02467B68D31A29
:102FF800BA689A4202D3BB68002B1DD1FB681B68D4
:103008005B6903F00403042B16D0FB6800221A63E3
:10301800FB68202283F83D20FB68002283F83E20CD
:10302800FB681B6C43F02002FB681A64FB680022F3
:1030380083F83C20012307E0FB681B685B6903F009
:103048000403042BC3D1002318461037BD4680BDA6
:1030580080B483B000AF78607B681B685B6903F459
:103068008063B3F5806F1BD17B681B686FF4806247
:103078005A617B6800221A637B68202283F83D200E
:103088007B68002283F83E207B681B6C43F00402B7
:103098007B681A647B68002283F83C20012300E0E7
:1030A800002318460C37BD465DF8047B70470000C6
:1030B80080B586B000AF78607B68002B01D1012312
:1030C80067E27B681B6803F00103002B75D0884B0F
:1030D8009B6803F00C03042B0CD0854B9B6803F012
:1030E8000C03082B12D1824B5B6803F48003B3F501
:1030F800800F0BD17E4B1B6803F40033002B5BD091
:103108007B685B68002B57D1012342E27B685B68D0
:10311800B3F5803F06D1764B1B68754A43F480337C
:1031280013601DE07B685B68B3F5A02F0CD1704B72
:103138001B686F4A43F4802313606D4B1B686C4A0D
:1031480043F4803313600BE0694B1B68684A23F42F
:1031580080331360664B1B68654A23F48023136031
:103168007B685B68002B13D0FEF70CFC386108E025
:10317800FEF708FC02463B69D31A642B01D90323E6
:1031880007E25B4B1B6803F40033002BF0D014E01C
:10319800FEF7F8FB386108E0FEF7F4FB02463B69EE
:1031A800D31A642B01D90323F3E1514B1B6803F4B1
:1031B8000033002BF0D100E000BF7B681B6803F0F0
:1031C8000203002B63D04A4B9B6803F00C03002BCF
:1031D8000BD0474B9B6803F00C03082B1CD1444BC6
:1031E8005B6803F48003002B16D1414B1B6803F086
:1031F8000203002B05D07B68DB68012B01D001237B
:10320800C7E13B4B1B6823F0F8027B681B69DB00B6
:10321800374913430B603AE07B68DB68002B20D00A
:10322800344B01221A60FEF7ADFB386108E0FEF767
:10323800A9FB02463B69D31A022B01D90323A8E153
:103248002B4B1B6803F00203002BF0D0284B1B68A4
:1032580023F0F8027B681B69DB00254913430B60E8
:1032680015E0244B00221A60FEF78CFB386108E059
:10327800FEF788FB02463B69D31A022B01D90323C8
:1032880087E11B4B1B6803F00203002BF0D17B681E
:103298001B6803F00803002B36D07B685B69002BA2
:1032A80016D0154B01221A60FEF76CFB386108E056
:1032B800FEF768FB02463B69D31A022B01D90323A8
:1032C80067E10B4B5B6F03F00203002BF0D01BE0B0
:1032D800094B00221A60FEF755FB38610EE0FEF735
:1032E80051FB02463B69D31A022B07D9032350E14D
:1032F8000038024000004742800E4742884B5B6F0F
:1033080003F00203002BEAD17B681B6803F0040377
:10331800002B00F097800023FB75814B1B6C03F09A
:103328008053002B0FD10023BB607D4B1B6C7C4A64
:1033380043F0805313647A4B1B6C03F08053BB60DB
:10334800BB680123FB75774B1B6803F48073002B64
:1033580018D1744B1B68734A43F480731360FEF7EB
:1033680011FB386108E0FEF70DFB02463B69D31AF2
:10337800022B01D903230CE16A4B1B6803F4807309
:10338800002BF0D07B689B68012B06D1644B1B6F28
:10339800634A43F0010313671CE07B689B68052BB5
:1033A8000CD15F4B1B6F5E4A43F0040313675C4B01
:1033B8001B6F5B4A43F0010313670BE0584B1B6F0D
:1033C800574A23F001031367554B1B6F544A23F0E8
:1033D800040313677B689B68002B15D0FEF7D2FAAD
:1033E80038610AE0FEF7CEFA02463B69D31A41F289
:1033F8008832934201D90323CBE0494B1B6F03F07A
:103408000203002BEED014E0FEF7BCFA38610AE0A4
:10341800FEF7B8FA02463B69D31A41F28832934262
:1034280001D90323B5E03E4B1B6F03F00203002BC9
:10343800EED1FB7D012B05D1394B1B6C384A23F0AB
:10344800805313647B689B69002B00F0A180344B88
:103458009B6803F00C03082B5CD07B689B69022BEC
:1034680041D1314B00221A60FEF78CFA386108E02E
:10347800FEF788FA02463B69D31A022B01D90323C7
:1034880087E0274B1B6803F00073002BF0D17B68A3
:10349800DA697B681B6A1A437B685B6A9B011A437B
:1034A8007B689B6A5B08013B1B041A437B68DB6AE9
:1034B8001B061B4913434B601B4B01221A60FEF786
:1034C80061FA386108E0FEF75DFA02463B69D31AF3
:1034D800022B01D903235CE0114B1B6803F0007336
:1034E800002BF0D054E0104B00221A60FEF74AFA85
:1034F800386108E0FEF746FA02463B69D31A022B08
:1035080001D9032345E0064B1B6803F00073002B29
:10351800F0D13DE07B689B69012B07D1012338E09E
:103528000038024000700040600047421B4B5B6857
:10353800FB607B689B69012B28D0FB6803F4800241
:103548007B68DB699A4221D1FB6803F03F027B6804
:103558001B6A9A421AD1FA6847F6C07313407A6810
:10356800526A9201934211D1FB6803F440327B689E
:103578009B6A5B08013B1B049A4207D1FB6803F076
:1035880070627B68DB6A1B069A4201D0012300E067
:10359800002318461837BD4680BD00BF00380240DA
:1035A80080B584B000AF786039607B68002B01D1AA
:1035B8000123CCE0684B1B6803F007033A689A4282
:1035C8000CD9654B3A68D2B21A70634B1B6803F08A
:1035D80007033A689A4201D00123B8E07B681B6868
:1035E80003F00203002B20D07B681B6803F0040360
:1035F800002B05D0594B9B68584A43F4E05393601D
:103608007B681B6803F00803002B05D0534B9B68AD
:10361800524A43F460439360504B9B6823F0F00296
:103628007B689B684D4913438B607B681B6803F07C
:103638000103002B44D07B685B68012B07D1474B03
:103648001B6803F40033002B19D101237FE07B684A
:103658005B68022B03D07B685B68032B07D13F4B69
:103668001B6803F00073002B09D101236FE03B4B6B
:103678001B6803F00203002B01D1012367E0374BDD
:103688009B6823F003027B685B68344913438B60B3
:10369800FEF778F9F8600AE0FEF774F90246FB686D
:1036A800D31A41F28832934201D903234FE02B4BBE
:1036B8009B6803F00C027B685B689B009A42EBD125
:1036C800254B1B6803F007033A689A420CD2224B39
:1036D8003A68D2B21A70204B1B6803F007033A68A5
:1036E8009A4201D0012332E07B681B6803F004038F
:1036F800002B08D0194B9B6823F4E0527B68DB68E9
:10370800164913438B607B681B6803F00803002B82
:1037180009D0124B9B6823F460427B681B69DB006D
:103728000E4913438B6000F021F802460B4B9B684F
:103738001B0903F00F030A49CB5C22FA03F3094A79
:103748001360094B1B681846FEF7D8F80023184683
:103758001037BD4680BD00BF003C02400038024023
:103768005846000800000020040000202DE9B04F52
:1037780094B000AF00237B640023FB6400233B6408
:103788000023BB64794B9B6803F00C03082B0DD016
:10379800082B00F2E180002B02D0042B03D0DBE0E1
:1037A800734BBB64DBE0734BBB64D8E06F4B5B6867
:1037B80003F03F037B646D4B5B6803F48003002BCD
:1037C80063D06A4B5B689B090022BB63FA63BB6BDF
:1037D800C3F308033B6300237B63D7E90C45224608
:1037E8002B464FF000004FF00001590141EAD26129
:1037F800500102460B462146511A3961294663EBAE
:1038080001037B614FF000024FF00003D7E904ABDE
:1038180059468B01514643EA916351468A01514604
:10382800B2EB0108594663EB01094FF000024FF073
:1038380000034FEAC90343EA58734FEAC8029046A7
:103848009946234618EB0303BB602B4649EB030359
:10385800FB604FF000024FF00003D7E9024529460C
:103868004B02214643EAD15321464A0210461946E3
:103878007B6C0022BB62FA62D7E90A23FDF72CF9B8
:1038880002460B461346FB6458E0384B5B689B09BD
:10389800002218461146C0F308033B6200237B62EE
:1038A800D7E9088942464B464FF000004FF0000127
:1038B800590141EAD261500102460B464146B2EB3A
:1038C800010A494663EB010B4FF000024FF0000379
:1038D8004FEA8B1343EA9A634FEA8A12B2EB0A045F
:1038E80063EB0B054FF000024FF00003EB0043EAD7
:1038F8005473E20014461D464346E3183B604B46AA
:1039080045EB03037B604FF000024FF00003D7E95B
:10391800004529468B02214643EA915321468A02F3
:10392800104619467B6C0022BB61FA61D7E9062371
:10393800FDF7D2F802460B461346FB640B4B5B6857
:103948001B0C03F0030301335B003B64FA6C3B6C14
:10395800B2FBF3F3BB6402E0054BBB6400BFBB6C76
:1039680018465037BD46BDE8B08F00BF003802404A
:103978000024F40000127A0080B400AF034B1B68E7
:103988001846BD465DF8047B704700BF0000002064
:1039980080B500AFFFF7F0FF0246054B9B689B0A16
:1039A80003F007030349CB5C22FA03F3184680BDF2
:1039B800003802406846000880B582B000AF7860E1
:1039C8007B68002B01D1012341E07B6893F83D30EF
:1039D800DBB2002B06D17B68002283F83C20786894
:1039E800FDF7CCFE7B68022283F83D207B681A68CD
:1039F8007B6804331946104600F016FA7B680122EA
:103A080083F846207B68012283F83E207B680122E8
:103A180083F83F207B68012283F840207B680122DD
:103A280083F841207B68012283F842207B680122C9
:103A380083F843207B68012283F844207B680122B5
:103A480083F845207B68012283F83D20002318462F
:103A58000837BD4680BD80B584B000AF78607B680C
:103A68001B68DB68FB607B681B681B69BB60BB6805
:103A780003F00203002B20D0FB6803F00203002BA5
:103A88001BD07B681B686FF002021A617B680122F9
:103A98001A777B681B689B6903F00303002B03D02C
:103AA800786800F0A3F905E0786800F095F978687F
:103AB80000F0A6F97B6800221A77BB6803F00403BC
:103AC800002B20D0FB6803F00403002B1BD07B687D
:103AD8001B686FF004021A617B6802221A777B6800
:103AE8001B689B6903F44073002B03D0786800F0CF
:103AF8007DF905E0786800F06FF9786800F080F9E2
:103B08007B6800221A77BB6803F00803002B20D0DB
:103B1800FB6803F00803002B1BD07B681B686FF061
:103B280008021A617B6804221A777B681B68DB69C4
:103B380003F00303002B03D0786800F057F905E081
:103B4800786800F049F9786800F05AF97B68002233
:103B58001A77BB6803F01003002B20D0FB6803F032
:103B68001003002B1BD07B681B686FF010021A61D2
:103B78007B6808221A777B681B68DB6903F440734B
:103B8800002B03D0786800F031F905E0786800F080
:103B980023F9786800F034F97B6800221A77BB684B
:103BA80003F00103002B0CD0FB6803F00103002B8A
:103BB80007D07B681B686FF001021A61786800F013
:103BC80001F9BB6803F08003002B0CD0FB6803F0FD
:103BD8008003002B07D07B681B686FF080021A6196
:103BE800786800F0EDFABB6803F04003002B0CD0B6
:103BF800FB6803F04003002B07D07B681B686FF05D
:103C080040021A61786800F005F9BB6803F02003E8
:103C1800002B0CD0FB6803F02003002B07D07B6837
:103C28001B686FF020021A61786800F0BFFA00BFC5
:103C38001037BD4680BD80B584B000AF786039606C
:103C48000023FB737B6893F83C30012B01D10223DE
:103C5800B4E07B68012283F83C207B68022283F869
:103C68003D207B681B689B68BB60BB6823F07703BB
:103C7800BB60BB6823F47F43BB607B681B68BA6882
:103C88009A603B681B68B3F5005F3ED0B3F5005FF0
:103C980000F28780B3F5805F00F08680B3F5805F1F
:103CA8007FD8702B1AD0702B7BD8602B50D0602B0C
:103CB80077D8502B3CD0502B73D8402B58D0402B62
:103CC8006FD8302B64D0302B6BD8202B60D0202BB2
:103CD80067D8002B5CD0102B5AD062E07B6818683C
:103CE8003B6899683B685A683B68DB6800F0C2F932
:103CF8007B681B689B68BB60BB6843F07703BB604D
:103D08007B681B68BA689A604FE07B6818683B68F4
:103D180099683B685A683B68DB6800F0ABF97B68D8
:103D28001B689A687B681B6842F480429A603CE092
:103D38007B6818683B6859683B68DB681A4600F07E
:103D48001FF97B681B685021184600F078F92CE0B1
:103D58007B6818683B6859683B68DB681A4600F05E
:103D68003EF97B681B686021184600F068F91CE082
:103D78007B6818683B6859683B68DB681A4600F03E
:103D8800FFF87B681B684021184600F058F90CE0E2
:103D98007B681A683B681B681946104600F04FF9A3
:103DA80003E00123FB7300E000BF7B68012283F876
:103DB8003D207B68002283F83C20FB7B18461037A7
:103DC800BD4680BD80B483B000AF786000BF0C37BB
:103DD800BD465DF8047B704780B483B000AF78605F
:103DE80000BF0C37BD465DF8047B704780B483B0D4
:103DF80000AF786000BF0C37BD465DF8047B7047A4
:103E080080B483B000AF786000BF0C37BD465DF862
:103E1800047B704780B483B000AF786000BF0C3774
:103E2800BD465DF8047B704780B485B000AF78600C
:103E380039607B681B68FB607B68464A934213D0F5
:103E48007B68B3F1804F0FD07B68434A93420BD015
:103E58007B68424A934207D07B68414A934203D029
:103E68007B68404A934208D1FB6823F07003FB60EB
:103E78003B685B68FA681343FB607B68354A93428A
:103E88002BD07B68B3F1804F27D07B68324A9342AE
:103E980023D07B68314A93421FD07B68304A9342D3
:103EA8001BD07B682F4A934217D07B682E4A9342D7
:103EB80013D07B682D4A93420FD07B682C4A9342DB
:103EC8000BD07B682B4A934207D07B682A4A9342DF
:103ED80003D07B68294A934208D1FB6823F44073D6
:103EE800FB603B68DB68FA681343FB60FB6823F000
:103EF80080023B685B691343FB607B68FA681A6061
:103F08003B689A687B68DA623B681A687B689A62E1
:103F18007B68104A934203D07B68124A934203D1CC
:103F28003B681A697B681A637B6801225A617B685F
:103F38001B6903F00103012B05D17B681B6923F082
:103F480001027B681A6100BF1437BD465DF8047B27
:103F5800704700BF00000140000400400008004016
:103F6800000C0040000401400040014000440140B2
:103F78000048014000180040001C0040002000409C
:103F880080B487B000AFF860B9607A60FB681B6ADC
:103F98007B61FB681B6A23F00102FB681A62FB68FD
:103FA8009B693B613B6923F0F0033B617B681B0124
:103FB8003A6913433B617B6923F00A037B617A69A1
:103FC800BB6813437B61FB683A699A61FB687A694D
:103FD8001A6200BF1C37BD465DF8047B704780B489
:103FE80087B000AFF860B9607A60FB681B6A7B61D4
:103FF800FB681B6A23F01002FB681A62FB689B6966
:104008003B613B6923F470433B617B681B033A695E
:1040180013433B617B6923F0A0037B61BB681B01F1
:104028007A6913437B61FB683A699A61FB687A692C
:104038001A6200BF1C37BD465DF8047B704780B428
:1040480085B000AF786039607B689B68FB60FB686F
:1040580023F07003FB603A68FB68134343F00703DF
:10406800FB607B68FA689A6000BF1437BD465DF84C
:10407800047B704780B487B000AFF860B9607A609D
:104088003B60FB689B687B617B6923F47F437B61B2
:104098003B681A027B681A43BB6813437A69134367
:1040A8007B61FB687A699A6000BF1C37BD465DF882
:1040B800047B704780B485B000AF786039607B6856
:1040C80093F83C30012B01D102235AE07B6801228E
:1040D80083F83C207B68022283F83D207B681B68BC
:1040E8005B68FB607B681B689B68BB60FB6823F0B0
:1040F8007003FB603B681B68FA681343FB607B68CE
:104108001B68FA685A607B681B68214A934222D070
:104118007B681B68B3F1804F1DD07B681B681D4A04
:10412800934218D07B681B681B4A934213D07B6864
:104138001B681A4A93420ED07B681B68184A934240
:1041480009D07B681B68174A934204D07B681B68B8
:10415800154A93420CD1BB6823F08003BB603B68CF
:104168005B68BA681343BB607B681B68BA689A606F
:104178007B68012283F83D207B68002283F83C207D
:10418800002318461437BD465DF8047B704700BF0E
:10419800000001400004004000080040000C0040FE
:1041A80000040140004001400018004080B483B082
:1041B80000AF786000BF0C37BD465DF8047B7047E0
:1041C80080B483B000AF786000BF0C37BD465DF89F
:1041D800047B704702440346934200D1704703F8BA
:1041E800011BF9E7014B1868704700BF0C0000205D
:1041F80070B50D4D0D4C641BA4100026A64209D1C4
:104208000B4D0C4C00F016FA641BA4100026A642B5
:1042180005D170BD55F8043B98470136EEE755F8CF
:10422800043B98470136F2E77C4600087C460008C4
:104238007C4600088046000838B52DED028B55EC09
:10424800104B00F041F822462B4620462946B0EE96
:10425800408AF0EE608AFCF709FC98B90022002336
:1042680020462946FCF7F8FB60B9002200232046C7
:104278002946FCF7C9FB60B1FFF7B4FF9FED0A8B35
:1042880022230360B0EE480AF0EE680ABDEC028B08
:1042980038BDFFF7A7FFBDEC028B21230360BDE803
:1042A8003840034800F008B8000000000000F0FFA4
:1042B80070460008000000009FED010B704700BF2A
:1042C800000000000000F87F2DE9F04F51EC100BC2
:1042D800B1F5801F87B00D4626DA21F0004303436D
:1042E80002460AD1CE49002200230020FCF74EFAEC
:1042F80041EC100B07B0BDE8F08F002905DA0B463A
:10430800FBF762FF00220023F0E7C64B0022FCF710
:1043180013F96FF035030D46C34A954206DD024690
:104328000B46FBF753FFE3E70023F5E72C15A4F250
:10433800FF34C5F313051C4405F5152303F6647310
:1043480003F4801383F07F5282F4401242EA05019D
:1043580004EB13540022B54BFBF736FFAB1CC3F339
:104368001303022B82468B464FF0000253DC0023D6
:10437800FCF74AFBD0B1002C00F020812046FCF766
:1043880071F891A3D3E9002306460F46FCF7D4F849
:104398008FA3D3E9002304460D4630463946FCF77F
:1043A800CBF802460B4620462946BAE78AA3D3E94A
:1043B800002350465946FCF7BFF802460B4600203A
:1043C8009B49FBF701FF524606460F465B4650469F
:1043D8005946FCF7B1F802460B4630463946FCF719
:1043E800ABF806460F4614B932463B46A0E02046D5
:1043F800FCF738F874A3D3E9002380468946FCF714
:104408009BF873A3D3E9002304460D46404649466A
:10441800FCF792F8A5E04FF08043FBF7D7FE024681
:104428000B4650465946FCF7B1F9CDE90001204644
:10443800FCF718F8DDE90023CDE90201104619461A
:10444800FCF77AF802460B46CDE90423FCF774F82A
:1044580063A3D3E9002380468946FCF76DF862A37D
:10446800D3E90023FBF7B2FE42464B46FCF764F85B
:104478005FA3D3E90023FBF7A9FE42464B46FCF7AE
:104488005BF85DA3D3E90023FBF7A0FEDDE9042375
:10449800FCF752F85AA3D3E90023CDE904014046BA
:1044A8004946FCF749F858A3D3E90023FBF78EFEE9
:1044B80042464B46FCF740F855A3D3E90023FBF7E7
:1044C80085FE42464B46FCF737F8A5F5C22602465C
:1044D8000B46C5F5D725DDE90401FBF777FEA6F203
:1044E8007A4651353543002D8046894648DD504B84
:1044F800002250465946FCF71FF852465B46FCF727
:104508001BF802460B4606460F4640464946FBF74F
:104518005DFEDDE90023FCF70FF88046894664B9A3
:1045280002460B4630463946FBF74EFE02460B461E
:1045380050465946FBF748FEDAE623A3D3E90023A1
:10454800DDE90201FBF7F8FF21A3D3E900230446C4
:104558000D46DDE90201FBF7EFFF42464B46FBF74C
:1045680035FE02460B4630463946FBF72DFE5246CD
:104578005B46FBF729FE02460B4620462946D9E74B
:1045880002460B4650465946FBF71EFEDDE900235E
:10459800FBF7D2FF06460F46002C3FF425AF0AA3CF
:1045A800D3E90023DDE90201FBF7C6FF08A3D3E93D
:1045B800002304460D46DDE9020129E79FED160BAD
:1045C80098E600BFAFF300800000E0FE422EE63F11
:1045D800763C7935EF39EA3D555555555555D53F12
:1045E80044523EDF12F1C23FDE03CB966446C73F1A
:1045F800599322942449D23F935555555555E53F33
:104608009FC678D0099AC33FAF788E1DC571CC3F3D
:1046180004FA97999999D93F00000000000000001A
:10462800000050C300005043FFFFEF7F0000F03F41
:104638000000E03FF8B500BFF8BC08BC9E467047D4
:0C464800F8B500BFF8BC08BC9E467047E7
:104654002C00000000000000000000000102030420
:10466400060708090000000001020304000000001E
:084674009CC4FF7F010000005F
:04467C00AD01000884
:0446800089010008A4
:104684000024F400100000000100000010000020CD
:104694000000000074010020DC010020440200201E
:1046A4000000000000000000000000000000000006
:1046B40000000000000000000000000000000000F6
:1046C40000000000000000000000000000000000E6
:0C46D400000000000000000000000000DA
:040000050800186D6A
:00000001FF
